{
  "_format": "hh-sol-artifact-1",
  "contractName": "AllIssue",
  "sourceName": "contracts/Issue.sol",
  "abi": [
    {
      "anonymous": false,
      "inputs": [
        {
          "indexed": false,
          "internalType": "string",
          "name": "title",
          "type": "string"
        },
        {
          "indexed": false,
          "internalType": "string",
          "name": "disc",
          "type": "string"
        },
        {
          "indexed": false,
          "internalType": "string",
          "name": "img",
          "type": "string"
        },
        {
          "indexed": false,
          "internalType": "string",
          "name": "state",
          "type": "string"
        },
        {
          "indexed": true,
          "internalType": "bytes32",
          "name": "voterId",
          "type": "bytes32"
        },
        {
          "indexed": false,
          "internalType": "address",
          "name": "owner",
          "type": "address"
        },
        {
          "indexed": true,
          "internalType": "address",
          "name": "issueaddress",
          "type": "address"
        },
        {
          "indexed": false,
          "internalType": "uint256",
          "name": "time",
          "type": "uint256"
        }
      ],
      "name": "saveIssue",
      "type": "event"
    },
    {
      "inputs": [
        {
          "internalType": "string",
          "name": "_title",
          "type": "string"
        },
        {
          "internalType": "string",
          "name": "_disc",
          "type": "string"
        },
        {
          "internalType": "string",
          "name": "_img",
          "type": "string"
        },
        {
          "internalType": "string",
          "name": "_state",
          "type": "string"
        },
        {
          "internalType": "bytes32",
          "name": "VoterId",
          "type": "bytes32"
        }
      ],
      "name": "CreateIssue",
      "outputs": [],
      "stateMutability": "nonpayable",
      "type": "function"
    },
    {
      "inputs": [
        {
          "internalType": "uint256",
          "name": "",
          "type": "uint256"
        }
      ],
      "name": "Issueaddress",
      "outputs": [
        {
          "internalType": "address",
          "name": "",
          "type": "address"
        }
      ],
      "stateMutability": "view",
      "type": "function"
    }
  ],
  "bytecode": "0x6080604052348015600f57600080fd5b506114b98061001f6000396000f3fe608060405234801561001057600080fd5b50600436106100365760003560e01c8063639876651461003b5780637953ffc614610057575b600080fd5b61005560048036038101906100509190610369565b610087565b005b610071600480360381019061006c919061048a565b61018d565b60405161007e91906104f8565b60405180910390f35b600085858585853360405161009b906101cc565b6100aa969594939291906105a1565b604051809103906000f0801580156100c6573d6000803e3d6000fd5b5090506000819080600181540180825580915050600190039060005260206000200160009091909190916101000a81548173ffffffffffffffffffffffffffffffffffffffff021916908373ffffffffffffffffffffffffffffffffffffffff1602179055508073ffffffffffffffffffffffffffffffffffffffff16827f93cd9ae40e47761eac58f77719b4c1b401632d225d116edb53f7512ba793e73e88888888334260405161017d9695949392919061062d565b60405180910390a3505050505050565b6000818154811061019d57600080fd5b906000526020600020016000915054906101000a900473ffffffffffffffffffffffffffffffffffffffff1681565b610dd9806106ab83390190565b6000604051905090565b600080fd5b600080fd5b600080fd5b600080fd5b6000601f19601f8301169050919050565b7f4e487b7100000000000000000000000000000000000000000000000000000000600052604160045260246000fd5b610240826101f7565b810181811067ffffffffffffffff8211171561025f5761025e610208565b5b80604052505050565b60006102726101d9565b905061027e8282610237565b919050565b600067ffffffffffffffff82111561029e5761029d610208565b5b6102a7826101f7565b9050602081019050919050565b82818337600083830152505050565b60006102d66102d184610283565b610268565b9050828152602081018484840111156102f2576102f16101f2565b5b6102fd8482856102b4565b509392505050565b600082601f83011261031a576103196101ed565b5b813561032a8482602086016102c3565b91505092915050565b6000819050919050565b61034681610333565b811461035157600080fd5b50565b6000813590506103638161033d565b92915050565b600080600080600060a08688031215610385576103846101e3565b5b600086013567ffffffffffffffff8111156103a3576103a26101e8565b5b6103af88828901610305565b955050602086013567ffffffffffffffff8111156103d0576103cf6101e8565b5b6103dc88828901610305565b945050604086013567ffffffffffffffff8111156103fd576103fc6101e8565b5b61040988828901610305565b935050606086013567ffffffffffffffff81111561042a576104296101e8565b5b61043688828901610305565b925050608061044788828901610354565b9150509295509295909350565b6000819050919050565b61046781610454565b811461047257600080fd5b50565b6000813590506104848161045e565b92915050565b6000602082840312156104a05761049f6101e3565b5b60006104ae84828501610475565b91505092915050565b600073ffffffffffffffffffffffffffffffffffffffff82169050919050565b60006104e2826104b7565b9050919050565b6104f2816104d7565b82525050565b600060208201905061050d60008301846104e9565b92915050565b600081519050919050565b600082825260208201905092915050565b60005b8381101561054d578082015181840152602081019050610532565b60008484015250505050565b600061056482610513565b61056e818561051e565b935061057e81856020860161052f565b610587816101f7565b840191505092915050565b61059b81610333565b82525050565b600060c08201905081810360008301526105bb8189610559565b905081810360208301526105cf8188610559565b905081810360408301526105e38187610559565b905081810360608301526105f78186610559565b90506106066080830185610592565b61061360a08301846104e9565b979650505050505050565b61062781610454565b82525050565b600060c08201905081810360008301526106478189610559565b9050818103602083015261065b8188610559565b9050818103604083015261066f8187610559565b905081810360608301526106838186610559565b905061069260808301856104e9565b61069f60a083018461061e565b97965050505050505056fe608060405234801561001057600080fd5b50604051610dd9380380610dd9833981810160405281019061003291906102ce565b856000908161004191906105ec565b50846001908161005191906105ec565b50836002908161006191906105ec565b50826003908161007191906105ec565b508160048190555080600560006101000a81548173ffffffffffffffffffffffffffffffffffffffff021916908373ffffffffffffffffffffffffffffffffffffffff1602179055505050505050506106be565b6000604051905090565b600080fd5b600080fd5b600080fd5b600080fd5b6000601f19601f8301169050919050565b7f4e487b7100000000000000000000000000000000000000000000000000000000600052604160045260246000fd5b61012c826100e3565b810181811067ffffffffffffffff8211171561014b5761014a6100f4565b5b80604052505050565b600061015e6100c5565b905061016a8282610123565b919050565b600067ffffffffffffffff82111561018a576101896100f4565b5b610193826100e3565b9050602081019050919050565b60005b838110156101be5780820151818401526020810190506101a3565b60008484015250505050565b60006101dd6101d88461016f565b610154565b9050828152602081018484840111156101f9576101f86100de565b5b6102048482856101a0565b509392505050565b600082601f830112610221576102206100d9565b5b81516102318482602086016101ca565b91505092915050565b6000819050919050565b61024d8161023a565b811461025857600080fd5b50565b60008151905061026a81610244565b92915050565b600073ffffffffffffffffffffffffffffffffffffffff82169050919050565b600061029b82610270565b9050919050565b6102ab81610290565b81146102b657600080fd5b50565b6000815190506102c8816102a2565b92915050565b60008060008060008060c087890312156102eb576102ea6100cf565b5b600087015167ffffffffffffffff811115610309576103086100d4565b5b61031589828a0161020c565b965050602087015167ffffffffffffffff811115610336576103356100d4565b5b61034289828a0161020c565b955050604087015167ffffffffffffffff811115610363576103626100d4565b5b61036f89828a0161020c565b945050606087015167ffffffffffffffff8111156103905761038f6100d4565b5b61039c89828a0161020c565b93505060806103ad89828a0161025b565b92505060a06103be89828a016102b9565b9150509295509295509295565b600081519050919050565b7f4e487b7100000000000000000000000000000000000000000000000000000000600052602260045260246000fd5b6000600282049050600182168061041d57607f821691505b6020821081036104305761042f6103d6565b5b50919050565b60008190508160005260206000209050919050565b60006020601f8301049050919050565b600082821b905092915050565b6000600883026104987fffffffffffffffffffffffffffffffffffffffffffffffffffffffffffffffff8261045b565b6104a2868361045b565b95508019841693508086168417925050509392505050565b6000819050919050565b6000819050919050565b60006104e96104e46104df846104ba565b6104c4565b6104ba565b9050919050565b6000819050919050565b610503836104ce565b61051761050f826104f0565b848454610468565b825550505050565b600090565b61052c61051f565b6105378184846104fa565b505050565b5b8181101561055b57610550600082610524565b60018101905061053d565b5050565b601f8211156105a05761057181610436565b61057a8461044b565b81016020851015610589578190505b61059d6105958561044b565b83018261053c565b50505b505050565b600082821c905092915050565b60006105c3600019846008026105a5565b1980831691505092915050565b60006105dc83836105b2565b9150826002028217905092915050565b6105f5826103cb565b67ffffffffffffffff81111561060e5761060d6100f4565b5b6106188254610405565b61062382828561055f565b600060209050601f8311600181146106565760008415610644578287015190505b61064e85826105d0565b8655506106b6565b601f19841661066486610436565b60005b8281101561068c57848901518255600182019150602085019450602081019050610667565b868310156106a957848901516106a5601f8916826105b2565b8355505b6001600288020188555050505b505050505050565b61070c806106cd6000396000f3fe608060405234801561001057600080fd5b50600436106100935760003560e01c80638c8a2773116100665780638c8a27731461010e57806393006bd71461012c578063cd699ca31461014a578063f1b6dccd14610168578063fbb396511461018657610093565b806337715c751461009857806342697ebe146100b65780634b2e1f42146100d45780636bf52ffa146100f0575b600080fd5b6100a06101a4565b6040516100ad91906104f3565b60405180910390f35b6100be610232565b6040516100cb91906104f3565b60405180910390f35b6100ee60048036038101906100e99190610586565b6102c0565b005b6100f861030f565b60405161010591906105d5565b60405180910390f35b610116610315565b6040516101239190610631565b60405180910390f35b61013461033b565b604051610141919061065b565b60405180910390f35b610152610341565b60405161015f91906104f3565b60405180910390f35b6101706103cf565b60405161017d91906104f3565b60405180910390f35b61018e61045d565b60405161019b919061065b565b60405180910390f35b600180546101b1906106a5565b80601f01602080910402602001604051908101604052809291908181526020018280546101dd906106a5565b801561022a5780601f106101ff5761010080835404028352916020019161022a565b820191906000526020600020905b81548152906001019060200180831161020d57829003601f168201915b505050505081565b6002805461023f906106a5565b80601f016020809104026020016040519081016040528092919081815260200182805461026b906106a5565b80156102b85780601f1061028d576101008083540402835291602001916102b8565b820191906000526020600020905b81548152906001019060200180831161029b57829003601f168201915b505050505081565b81600681905550806007819055506007546006547f513fb6b0f98aab9752428eb9df409df1ebd8ad8f499491177b462e79ced7b4174260405161030391906105d5565b60405180910390a35050565b60065481565b600560009054906101000a900473ffffffffffffffffffffffffffffffffffffffff1681565b60075481565b6000805461034e906106a5565b80601f016020809104026020016040519081016040528092919081815260200182805461037a906106a5565b80156103c75780601f1061039c576101008083540402835291602001916103c7565b820191906000526020600020905b8154815290600101906020018083116103aa57829003601f168201915b505050505081565b600380546103dc906106a5565b80601f0160208091040260200160405190810160405280929190818152602001828054610408906106a5565b80156104555780601f1061042a57610100808354040283529160200191610455565b820191906000526020600020905b81548152906001019060200180831161043857829003601f168201915b505050505081565b60045481565b600081519050919050565b600082825260208201905092915050565b60005b8381101561049d578082015181840152602081019050610482565b60008484015250505050565b6000601f19601f8301169050919050565b60006104c582610463565b6104cf818561046e565b93506104df81856020860161047f565b6104e8816104a9565b840191505092915050565b6000602082019050818103600083015261050d81846104ba565b905092915050565b600080fd5b6000819050919050565b61052d8161051a565b811461053857600080fd5b50565b60008135905061054a81610524565b92915050565b6000819050919050565b61056381610550565b811461056e57600080fd5b50565b6000813590506105808161055a565b92915050565b6000806040838503121561059d5761059c610515565b5b60006105ab8582860161053b565b92505060206105bc85828601610571565b9150509250929050565b6105cf8161051a565b82525050565b60006020820190506105ea60008301846105c6565b92915050565b600073ffffffffffffffffffffffffffffffffffffffff82169050919050565b600061061b826105f0565b9050919050565b61062b81610610565b82525050565b60006020820190506106466000830184610622565b92915050565b61065581610550565b82525050565b6000602082019050610670600083018461064c565b92915050565b7f4e487b7100000000000000000000000000000000000000000000000000000000600052602260045260246000fd5b600060028204905060018216806106bd57607f821691505b6020821081036106d0576106cf610676565b5b5091905056fea2646970667358221220539004bfe2cc9e0ef91e12524be9eef19cabf172ac5fea9df31be2fd36b7224164736f6c634300081c0033a264697066735822122078dca7ff7187182179de67d0da593045a17b711590a7555d85d8c6b482030b6764736f6c634300081c0033",
  "linkReferences": {},
  "deployedLinkReferences": {}
}