{
  "_format": "hh-sol-artifact-1",
  "contractName": "Issue",
  "sourceName": "contracts/Issue.sol",
  "abi": [
    {
      "inputs": [
        {
          "internalType": "string",
          "name": "_Ititle",
          "type": "string"
        },
        {
          "internalType": "string",
          "name": "_Idisc",
          "type": "string"
        },
        {
          "internalType": "string",
          "name": "_Iimg",
          "type": "string"
        },
        {
          "internalType": "string",
          "name": "_State",
          "type": "string"
        },
        {
          "internalType": "bytes32",
          "name": "_voteId",
          "type": "bytes32"
        },
        {
          "internalType": "address",
          "name": "_Owner",
          "type": "address"
        }
      ],
      "stateMutability": "nonpayable",
      "type": "constructor"
    },
    {
      "anonymous": false,
      "inputs": [
        {
          "indexed": true,
          "internalType": "uint256",
          "name": "Votevalue",
          "type": "uint256"
        },
        {
          "indexed": true,
          "internalType": "address",
          "name": "Voter",
          "type": "address"
        },
        {
          "indexed": false,
          "internalType": "uint256",
          "name": "time",
          "type": "uint256"
        }
      ],
      "name": "Showvote",
      "type": "event"
    },
    {
      "inputs": [],
      "name": "Idisc",
      "outputs": [
        {
          "internalType": "string",
          "name": "",
          "type": "string"
        }
      ],
      "stateMutability": "view",
      "type": "function"
    },
    {
      "inputs": [],
      "name": "Iimg",
      "outputs": [
        {
          "internalType": "string",
          "name": "",
          "type": "string"
        }
      ],
      "stateMutability": "view",
      "type": "function"
    },
    {
      "inputs": [],
      "name": "Ititle",
      "outputs": [
        {
          "internalType": "string",
          "name": "",
          "type": "string"
        }
      ],
      "stateMutability": "view",
      "type": "function"
    },
    {
      "inputs": [],
      "name": "OWner",
      "outputs": [
        {
          "internalType": "address",
          "name": "",
          "type": "address"
        }
      ],
      "stateMutability": "view",
      "type": "function"
    },
    {
      "inputs": [],
      "name": "State",
      "outputs": [
        {
          "internalType": "string",
          "name": "",
          "type": "string"
        }
      ],
      "stateMutability": "view",
      "type": "function"
    },
    {
      "inputs": [],
      "name": "Vote",
      "outputs": [
        {
          "internalType": "uint256",
          "name": "",
          "type": "uint256"
        }
      ],
      "stateMutability": "view",
      "type": "function"
    },
    {
      "inputs": [
        {
          "internalType": "uint256",
          "name": "_vote",
          "type": "uint256"
        }
      ],
      "name": "VoteforIssue",
      "outputs": [],
      "stateMutability": "nonpayable",
      "type": "function"
    },
    {
      "inputs": [],
      "name": "VoterTake",
      "outputs": [
        {
          "internalType": "address",
          "name": "",
          "type": "address"
        }
      ],
      "stateMutability": "view",
      "type": "function"
    },
    {
      "inputs": [],
      "name": "voteId",
      "outputs": [
        {
          "internalType": "bytes32",
          "name": "",
          "type": "bytes32"
        }
      ],
      "stateMutability": "view",
      "type": "function"
    }
  ],
  "bytecode": "0x608060405234801561001057600080fd5b50604051610e29380380610e29833981810160405281019061003291906102ce565b856000908161004191906105ec565b50846001908161005191906105ec565b50836002908161006191906105ec565b50826003908161007191906105ec565b508160048190555080600560006101000a81548173ffffffffffffffffffffffffffffffffffffffff021916908373ffffffffffffffffffffffffffffffffffffffff1602179055505050505050506106be565b6000604051905090565b600080fd5b600080fd5b600080fd5b600080fd5b6000601f19601f8301169050919050565b7f4e487b7100000000000000000000000000000000000000000000000000000000600052604160045260246000fd5b61012c826100e3565b810181811067ffffffffffffffff8211171561014b5761014a6100f4565b5b80604052505050565b600061015e6100c5565b905061016a8282610123565b919050565b600067ffffffffffffffff82111561018a576101896100f4565b5b610193826100e3565b9050602081019050919050565b60005b838110156101be5780820151818401526020810190506101a3565b60008484015250505050565b60006101dd6101d88461016f565b610154565b9050828152602081018484840111156101f9576101f86100de565b5b6102048482856101a0565b509392505050565b600082601f830112610221576102206100d9565b5b81516102318482602086016101ca565b91505092915050565b6000819050919050565b61024d8161023a565b811461025857600080fd5b50565b60008151905061026a81610244565b92915050565b600073ffffffffffffffffffffffffffffffffffffffff82169050919050565b600061029b82610270565b9050919050565b6102ab81610290565b81146102b657600080fd5b50565b6000815190506102c8816102a2565b92915050565b60008060008060008060c087890312156102eb576102ea6100cf565b5b600087015167ffffffffffffffff811115610309576103086100d4565b5b61031589828a0161020c565b965050602087015167ffffffffffffffff811115610336576103356100d4565b5b61034289828a0161020c565b955050604087015167ffffffffffffffff811115610363576103626100d4565b5b61036f89828a0161020c565b945050606087015167ffffffffffffffff8111156103905761038f6100d4565b5b61039c89828a0161020c565b93505060806103ad89828a0161025b565b92505060a06103be89828a016102b9565b9150509295509295509295565b600081519050919050565b7f4e487b7100000000000000000000000000000000000000000000000000000000600052602260045260246000fd5b6000600282049050600182168061041d57607f821691505b6020821081036104305761042f6103d6565b5b50919050565b60008190508160005260206000209050919050565b60006020601f8301049050919050565b600082821b905092915050565b6000600883026104987fffffffffffffffffffffffffffffffffffffffffffffffffffffffffffffffff8261045b565b6104a2868361045b565b95508019841693508086168417925050509392505050565b6000819050919050565b6000819050919050565b60006104e96104e46104df846104ba565b6104c4565b6104ba565b9050919050565b6000819050919050565b610503836104ce565b61051761050f826104f0565b848454610468565b825550505050565b600090565b61052c61051f565b6105378184846104fa565b505050565b5b8181101561055b57610550600082610524565b60018101905061053d565b5050565b601f8211156105a05761057181610436565b61057a8461044b565b81016020851015610589578190505b61059d6105958561044b565b83018261053c565b50505b505050565b600082821c905092915050565b60006105c3600019846008026105a5565b1980831691505092915050565b60006105dc83836105b2565b9150826002028217905092915050565b6105f5826103cb565b67ffffffffffffffff81111561060e5761060d6100f4565b5b6106188254610405565b61062382828561055f565b600060209050601f8311600181146106565760008415610644578287015190505b61064e85826105d0565b8655506106b6565b601f19841661066486610436565b60005b8281101561068c57848901518255600182019150602085019450602081019050610667565b868310156106a957848901516106a5601f8916826105b2565b8355505b6001600288020188555050505b505050505050565b61075c806106cd6000396000f3fe608060405234801561001057600080fd5b50600436106100935760003560e01c806393006bd71161006657806393006bd714610110578063c206d9f61461012e578063cd699ca31461014a578063f1b6dccd14610168578063fbb396511461018657610093565b806337715c751461009857806342697ebe146100b65780636bf52ffa146100d45780638c8a2773146100f2575b600080fd5b6100a06101a4565b6040516100ad9190610582565b60405180910390f35b6100be610232565b6040516100cb9190610582565b60405180910390f35b6100dc6102c0565b6040516100e991906105bd565b60405180910390f35b6100fa6102c6565b6040516101079190610619565b60405180910390f35b6101186102ec565b6040516101259190610619565b60405180910390f35b61014860048036038101906101439190610665565b610312565b005b6101526103d0565b60405161015f9190610582565b60405180910390f35b61017061045e565b60405161017d9190610582565b60405180910390f35b61018e6104ec565b60405161019b91906106ab565b60405180910390f35b600180546101b1906106f5565b80601f01602080910402602001604051908101604052809291908181526020018280546101dd906106f5565b801561022a5780601f106101ff5761010080835404028352916020019161022a565b820191906000526020600020905b81548152906001019060200180831161020d57829003601f168201915b505050505081565b6002805461023f906106f5565b80601f016020809104026020016040519081016040528092919081815260200182805461026b906106f5565b80156102b85780601f1061028d576101008083540402835291602001916102b8565b820191906000526020600020905b81548152906001019060200180831161029b57829003601f168201915b505050505081565b60065481565b600560009054906101000a900473ffffffffffffffffffffffffffffffffffffffff1681565b600760009054906101000a900473ffffffffffffffffffffffffffffffffffffffff1681565b8060068190555033600760006101000a81548173ffffffffffffffffffffffffffffffffffffffff021916908373ffffffffffffffffffffffffffffffffffffffff160217905550600760009054906101000a900473ffffffffffffffffffffffffffffffffffffffff1673ffffffffffffffffffffffffffffffffffffffff166006547f954e55d7b5d05b18b97a925839a55ccfbbfb9a83f3a6ab9a6d246f08a50c27c4426040516103c591906105bd565b60405180910390a350565b600080546103dd906106f5565b80601f0160208091040260200160405190810160405280929190818152602001828054610409906106f5565b80156104565780601f1061042b57610100808354040283529160200191610456565b820191906000526020600020905b81548152906001019060200180831161043957829003601f168201915b505050505081565b6003805461046b906106f5565b80601f0160208091040260200160405190810160405280929190818152602001828054610497906106f5565b80156104e45780601f106104b9576101008083540402835291602001916104e4565b820191906000526020600020905b8154815290600101906020018083116104c757829003601f168201915b505050505081565b60045481565b600081519050919050565b600082825260208201905092915050565b60005b8381101561052c578082015181840152602081019050610511565b60008484015250505050565b6000601f19601f8301169050919050565b6000610554826104f2565b61055e81856104fd565b935061056e81856020860161050e565b61057781610538565b840191505092915050565b6000602082019050818103600083015261059c8184610549565b905092915050565b6000819050919050565b6105b7816105a4565b82525050565b60006020820190506105d260008301846105ae565b92915050565b600073ffffffffffffffffffffffffffffffffffffffff82169050919050565b6000610603826105d8565b9050919050565b610613816105f8565b82525050565b600060208201905061062e600083018461060a565b92915050565b600080fd5b610642816105a4565b811461064d57600080fd5b50565b60008135905061065f81610639565b92915050565b60006020828403121561067b5761067a610634565b5b600061068984828501610650565b91505092915050565b6000819050919050565b6106a581610692565b82525050565b60006020820190506106c0600083018461069c565b92915050565b7f4e487b7100000000000000000000000000000000000000000000000000000000600052602260045260246000fd5b6000600282049050600182168061070d57607f821691505b6020821081036107205761071f6106c6565b5b5091905056fea264697066735822122070efb8265d9ec9f090c8ab9760282969521dc8a6c8d59b7cd5e813a55f026e9d64736f6c634300081c0033",
  "linkReferences": {},
  "deployedLinkReferences": {}
}